:03000000020300F8
:030003000203589D
:030023000203993C
:10030000D288D28AC2AAD2A8D2AFC29FD29ED29C91
:10031000D2AFD2AC758DFC758BFC758920D2ACD276
:100320008E755DFF75640012041A1205212097FD79
:10033000755FFF3095FD120437E563B40C030203CB
:1003400050B40A0302034AB40B061205441203EB2D
:1003500012052112041A80D5C0E0C0D0E8C0E0E543
:100360005F602D855EE0A297B31385E05E8560E057
:10037000640460050560020390855EE01313135466
:100380001F85E05E756000A868A65E080562886843
:10039000D0E0A8E0D0D0D0E032C0E0C0D088E0C04B
:1003A000E020980620990A0203B6E55DC298020390
:1003B000B67564FFC2990203BBC298D0E0A8E0D032
:1003C000D0D0E032C0E0C0D0E8C0E0EAC0E07A00BF
:1003D0007880E6540FCA6ACA08B40FF68A65D0E07E
:1003E000AAE0D0E0A8E0D0D0D0E022C0E0C0D0E8C1
:1003F000C0E0755DFF788075620FE6F59908E564E9
:1004000060FC7564001204F01204F0D562EC755DB6
:10041000FFD0E0A8E0D0D0D0E022C0E0C0D0756826
:10042000807880756000755F007562007561007589
:100430005E00D0D0D0E022C0E0C0D0E8C0E078803C
:10044000E6B40B0C788EE6B41F0675630A0204D777
:10045000788FE6B40D0302047DB41A0302046EB46F
:10046000060302048FB403030204A40204BC1205B1
:100470008C12060612063D75630B0204D712058C1A
:100480001205C012060612063D75630B0204D71250
:10049000058C1205C01205C012060612063D7563D2
:1004A0000B0204D712058C1205C01205C01205C03C
:1004B00012060612063D75630B0204D712058C1254
:1004C00005C01205C01205C01205C01206061206AC
:1004D0003D75630B0204D771C4788FE6540FF6E5BF
:1004E0006566600375630CD0E0A8E0D0D0D0E02250
:1004F000C0E0C0D0C0E089E0C0E08AE0C0E08BE0AE
:10050000C0E079097A027B10DBFEDAFAD9F6D0E096
:10051000ABE0D0E0AAE0D0E0A9E0D0E0D0D0D0E0DD
:1005200022C0E0C0D0E8C0E0EAC0E07A007880767F
:1005300000080AEAB432F8D0E0AAE0D0E0A8E0D09F
:10054000D0D0E022C0E0C0D0E8C0E0EAC0E07A004D
:100550007880E6540F2430F6080AEAB40FF4D0E0AD
:10056000AAE0D0E0A8E0D0D0D0E022C0E0C0D078AF
:1005700080756600E6640B600E08E89480F566E519
:10058000626566600280EDD0D0D0E022C0E0C0D0CD
:10059000E8C0E07880756900E6A2E492F4A2E092F7
:1005A000F3A2E192F2A2E292F1A2E392F0E5F0F678
:1005B000080569E569B410E0D0E0F8D0D0D0E022B9
:1005C000C0E0C0D0E8C0E07880756A0075F000E651
:1005D000A2F692E575F000A2E492E6A2E092F4A2FF
:1005E000E392F2A2E292F1A2E192F0A2E592F3A2EA
:1005F000E6E5F092F6F608056AE56AB410D1D0E0B7
:10060000F8D0D0D0E022C0E0C0D0E8C0E07880755B
:100610006A0075F000E6A2E492F0A2E092F1A2E195
:1006200092F2A2E292F3A2E392F4E5F0F608056AF0
:10063000E56AB410E0D0E0F8D0D0D0E022C0E0C04D
:10064000D0788F7990756700E6F718090567E56738
:10065000B410F578907980756700E6F708090567AA
:0A066000E567B410F5D0D0D0E02219
:00000001FF
