:03000000020300F8
:0300030002037D78
:030023000203C411
:10030000D288D28AC2AAD2A8D2AFC29FD29ED29C91
:10031000D2AFD2AC758DFC758BFC758920D2ACD276
:100320008E755DFF75640012044E12077312051F6F
:1003300012066812068130B40F30B5030203527002
:10034000F512077374FF80EE1206C21206EA7400FB
:1003500080E42095E13095FD12046BE563B40C0355
:10036000020372B40A0302036CB40B0612054212B4
:10037000041F12051F12044E12077380B9C0E0C09B
:10038000D0E8C0E0E55F7006209730755FFF855EBE
:10039000E0A297B31385E05E8560E0640460050524
:1003A000600203BB855EE0131313541F85E05E7586
:1003B0006000A868A65E0805628868D0E0A8E0D062
:1003C000D0D0E032C0E0C0D088E0C0E02098062065
:1003D000990A0203E1E55DC2980203E17564FFC278
:1003E000990203E6C298D0E0A8E0D0D0D0E032C0B5
:1003F000E0C0D0D0D0D0E032C0E0C0D0E8C0E0EA69
:10040000C0E07A007880E6540FCA6ACA08B40FF6D2
:100410008A65D0E0AAE0D0E0A8E0D0D0D0E022C049
:10042000E0C0D0E8C0E0755DFF788075620FE6F54A
:100430009908E56460FC7564001204EE1204EED5C0
:1004400062EC755DFFD0E0A8E0D0D0D0E022C0E043
:10045000C0D07568807880756000755F0075620037
:10046000756100755E00D0D0D0E022C0E0C0D0E859
:10047000C0E07880E6B40B0C788EE6B41F06756396
:100480000A0204D5788FE6B40D030204A8B41A0357
:100490000204A2B406030204AEB403030204B402CD
:1004A00004BA12058A0204C912058A0204C612059A
:1004B0008A0204C312058A0204C012058A1205BE0C
:1004C0001205BE1205BE1205BE12060412063B75C9
:1004D000630B0204D571F8788FE6540FF6E5656674
:1004E000600375630CD0E0A8E0D0D0D0E022C0E07B
:1004F000C0D0C0E089E0C0E08AE0C0E08BE0C0E0AE
:1005000079097A027B10DBFEDAFAD9F6D0E0ABE0AB
:10051000D0E0AAE0D0E0A9E0D0E0D0D0D0E022C086
:10052000E0C0D0E8C0E0EAC0E07A00788076000859
:100530000AEAB432F8D0E0AAE0D0E0A8E0D0D0D007
:10054000E022C0E0C0D0E8C0E0EAC0E07A007880F5
:10055000E6540F2430F6080AEAB40FF4D0E0AAE01B
:10056000D0E0A8E0D0D0D0E022C0E0C0D078807544
:100570006600E6640B600E08E89480F566E5626547
:1005800066600280EDD0D0D0E022C0E0C0D0E8C0EC
:10059000E07880756900E6A2E492F4A2E092F3A20A
:1005A000E192F2A2E292F1A2E392F0E5F0F6080500
:1005B00069E569B410E0D0E0F8D0D0D0E022C0E026
:1005C000C0D0E8C0E07880756A0075F000E6A2F659
:1005D00092E575F000A2E492E6A2E092F4A2E39222
:1005E000F2A2E292F1A2E192F0A2E592F3A2E6E594
:1005F000F092F6F608056AE56AB410D1D0E0F8D0BA
:10060000D0D0E022C0E0C0D0E8C0E07880756B00B8
:1006100075F000E6A2E492F0A2E092F1A2E192F27B
:10062000A2E292F3A2E392F4E5F0F608056BE56B23
:10063000B410E0D0E0F8D0D0D0E022C0E0C0D07854
:100640008F7990756700E6F718090567E567B410BC
:10065000F578907980756700E6F708090567E56722
:10066000B410F5D0D0D0E022C0E0C0D0C2A4D2A255
:10067000756C60B2A391EED56CF9D2A4D0D0D0E065
:1006800022C0E0C0D0C2A4C2A2756C60B2A391EE39
:10069000D56CE0D2A4D0D0D0E022C0E0C0D0E8C079
:1006A000E078A0764978A1762478A2769678A37629
:1006B000DB78A4766D78A576FAD0E0A8E0D0D0D02B
:1006C000E022C0E0C0D0E8C0E078A076A678A176AD
:1006D0009A78A2766978A376A678A4769A78A57691
:1006E00069D0E0A8E0D0D0D0E022C0E0C0D0E8C01F
:1006F000E0C2A478A0756D08E6C333F64005D2A227
:10070000020705C2A2B2A391EEB2A391EED56DE8A5
:1007100008B8A6E1D2A4D0E0F8D0D0D0E022C0E062
:10072000C0D0E8C0E078A0756A0075F000C3A2F000
:10073000E613F692F008056AE56AB406F178A0E6D9
:10074000A2F092E7F6D0E0F8D0D0D0E022C0E0C02E
:10075000D0755A00755B10D19AE55A600AA85AF113
:100760001EF11EF11ED8F8D1EA055AD55BE9D0D0AA
:10077000D0E022C0E0C0D0755A00755B10D19AE578
:100780005A600AA85AF11EF11EF11ED8F8D1EA05E6
:090790005AD55BE9D0D0D0E0227B
:00000001FF
