:03000000020300F8
:060003000203B0020448F4
:030023000203F7DE
:10030000D288D28AC2AAD2A8D2AF758901758A01D1
:10031000758C00D2A9D2AFC28CC29FD29ED29CD281
:10032000AFD2AC758DFC758BFC758920D2ACD28EAA
:10033000751E007564001204E31205B412084C1215
:1003400005F312073C12075530B43330B527852129
:10035000E06010E51F7014E52070152095EA020397
:100360008880E51207BE1205B480DD1205B480D87E
:100370001205B480D370D112084C74FF80CA1207E2
:10038000961207BE740080C03095FD120500E5632B
:10039000B40C030203A5B40A0302039FB40B0612B4
:1003A00006161204B41205F31204E312084C8098E6
:1003B000C0E0C0D0E8C0E0E55F7006209730755F10
:1003C000FF855EE0A297B31385E05E8560E064047C
:1003D000600505600203EE855EE0131313541F856C
:1003E000E05E756000A868A65E0805628868D0E0D7
:1003F000A8E0D0D0D0E032C0E0C0D088E0C0E0209B
:10040000980620993002043AE51E7031852EE025C9
:1004100022A8E08599E0A6E08522E005E085E022BB
:10042000E52114F5217523FF758A01758C00D28CA6
:10043000C29802043A7564FFC29902043FC298D080
:10044000E0A8E0D0D0D0E032C0E0C0D0E523601A10
:10045000E52414F5247013E52514F5257009751F9E
:10046000FF75230002046A852624E52D601AE5281D
:1004700014F5287013E52914F52970097520FF7506
:100480002D00020488852A28D0D0D0E032C0E0C0F8
:10049000D0E8C0E0EAC0E07A007880E6540FCA6A8B
:1004A000CA08B40FF68A65D0E0AAE0D0E0A8E0D090
:1004B000D0D0E022C0E0C0D0E8C0E0751EFF788058
:1004C00075620FE6F59908E56460FC756400120535
:1004D00083120583D562EC751EFFD0E0A8E0D0D072
:1004E000D0E022C0E0C0D07568807880756000756B
:1004F0005F00756200756100755E00D0D0D0E022AB
:10050000C0E0C0D0E8C0E07880E6B40B0C788EE69E
:10051000B41F0675630A02056A788FE6B40D0302FC
:10052000053DB41A03020537B40603020543B403BC
:100530000302054902054F12065E02055E12065EC1
:1005400002055B12065E02055812065E0205551290
:10055000065E120692120692120692120692120677
:10056000D812070F75630B02056A918D788FE654D8
:100570000FF6E56566600375630CD0E0A8E0D0D0A7
:10058000D0E022C0E0C0D0C0E089E0C0E08AE0C096
:10059000E08BE0C0E079097A027B10DBFEDAFAD961
:1005A000F6D0E0ABE0D0E0AAE0D0E0A9E0D0E0D027
:1005B000D0D0E022C0E0C0D0752C0675262075276B
:1005C00001752A78752B1E752D0075200075220087
:1005D000751F00752300852624852725752DFF8529
:1005E0002A28852B29852C21752EA0751E00D0D098
:1005F000D0E022C0E0C0D0E8C0E0EAC0E07A0078F5
:10060000807600080AEAB432F8D0E0AAE0D0E0A888
:10061000E0D0D0D0E022C0E0C0D0E8C0E0EAC0E046
:100620007A007880E6540F2430F6080AEAB40FF412
:10063000D0E0AAE0D0E0A8E0D0D0D0E022C0E0C076
:10064000D07880756600E6640B600E08E89480F54B
:1006500066E5626566600280EDD0D0D0E022C0E041
:10066000C0D0E8C0E07880756900E6A2E492F4A208
:10067000E092F3A2E192F2A2E292F1A2E392F0E51B
:10068000F0F6080569E569B410E0D0E0F8D0D0D004
:10069000E022C0E0C0D0E8C0E07880756A0075F064
:1006A00000E6A2F692E575F000A2E492E6A2E092DE
:1006B000F4A2E392F2A2E292F1A2E192F0A2E59218
:1006C000F3A2E6E5F092F6F608056AE56AB410D101
:1006D000D0E0F8D0D0D0E022C0E0C0D0E8C0E078D0
:1006E00080756B0075F000E6A2E492F0A2E092F152
:1006F000A2E192F2A2E292F3A2E392F4E5F0F6080C
:10070000056BE56BB410E0D0E0F8D0D0D0E022C0AB
:10071000E0C0D0788F7990756700E6F71809056713
:10072000E567B410F578907980756700E6F70809F9
:100730000567E567B410F5D0D0D0E022C0E0C0D0A6
:10074000C2A4D2A2756C60B2A3B183D56CF9D2A455
:10075000D0D0D0E022C0E0C0D0C2A4C2A2756C60EC
:10076000B2A3B183D56CE0D2A4D0D0D0E022C0E057
:10077000C0D0E8C0E078A0764978A1762478A27647
:100780009678A376DB78A4766D78A576FAD0E0A883
:10079000E0D0D0D0E022C0E0C0D0E8C0E078A076C1
:1007A000A678A1769A78A2766978A376A678A476B8
:1007B0009A78A57669D0E0A8E0D0D0D0E022C0E059
:1007C000C0D0E8C0E0C2A478A0756D08E6C333F6D7
:1007D0004005D2A20207D9C2A2B2A3B183B2A3B18B
:1007E00083D56DE808B8A6E1D2A4D0E0F8D0D0D087
:1007F000E022C0E0C0D0E8C0E078A0756A0075F0E3
:1008000000C3A2F0E613F692F008056AE56AB406A2
:10081000F178A0E6A2F092E7F6D0E0F8D0D0D0E0F0
:1008200022C0E0C0D0755A00755B1012076EE55A01
:10083000600DA85A1207F21207F21207F2D8F51249
:1008400007BE055AD55BE4D0D0D0E022C0E0C0D0CE
:10085000755A00755B1012076EE55A600DA85A12A2
:1008600007F21207F21207F2D8F51207BE055AD5A1
:070870005BE4D0D0D0E022D0
:00000001FF
