:03000000020300F8
:0600030002039D0204242B
:030023000203E4F1
:10030000D288D28AC2AAD2A8D2AF758901758A01D1
:10031000758C00D2A9D2AFC28CC29FD29ED29CD281
:10032000AFD2AC758DFC758BFC758920D2ACD28EAA
:100330007540007564001204BF120590120828125F
:1003400005CF12071812073130B42030B515854398
:10035000E060082095F202037580ED12079A1205FD
:100360009080E512074A12079A80DD120772120781
:100370009A740080D33095FD1204DCE563B40C035D
:10038000020392B40A0302038CB40B061205F212A4
:1003900004901205CF1204BF12082880ABC0E0C041
:1003A000D0E8C0E0E55F7006209730755FFF855E9E
:1003B000E0A297B31385E05E8560E0640460050504
:1003C000600203DB855EE0131313541F85E05E7546
:1003D0006000A868A65E0805628868D0E0A8E0D042
:1003E000D0D0E032C0E0C0D089E0C0E02098062044
:1003F000991F020416E54070208550E02544A9E0CD
:100400008599E0A7E0054415437545FFC2980204AD
:10041000167564FFC29902041BC298D0E0A9E0D00F
:10042000D0D0E032C0E0C0D0E545601AE54614F512
:10043000467013E54714F54770097541FF7545008F
:10044000020446854846E54F601AE54A14F54A70AD
:1004500013E54B14F54B70097542FF754F0002040C
:1004600064854C4AD0D0D0E032C0E0C0D0E8C0E0D3
:10047000EAC0E07A007880E6540FCA6ACA08B40F6E
:10048000F68A65D0E0AAE0D0E0A8E0D0D0D0E022A3
:10049000C0E0C0D0E8C0E07540FF788075620FE62C
:1004A000F59908E56460FC75640012055F12055F4C
:1004B000D562EC754000D0E0A8E0D0D0D0E022C0FA
:1004C000E0C0D07568807880756000755F007562E7
:1004D00000756100755E00D0D0D0E022C0E0C0D0D1
:1004E000E8C0E07880E6B40B0C788EE6B41F0675A1
:1004F000630A020546788FE6B40D03020519B41AA3
:1005000003020513B4060302051FB4030302052505
:1005100002052B12063A02053A12063A0205371274
:10052000063A02053412063A02053112063A12065C
:100530006E12066E12066E12066E1206B41206EBEC
:1005400075630B0205469169788FE6540FF6E565F1
:1005500066600375630CD0E0A8E0D0D0D0E022C084
:10056000E0C0D0C0E089E0C0E08AE0C0E08BE0C03D
:10057000E079097A027B10DBFEDAFAD9F6D0E0AB3B
:10058000E0D0E0AAE0D0E0A9E0D0E0D0D0D0E022F6
:10059000C0E0C0D0754E06754820754901754C788D
:1005A000754D1E754F00754200754400754100750C
:1005B0004500854846854947754FFF854C4A854D1E
:1005C0004B854E437550A0754000D0D0D0E022C07E
:1005D000E0C0D0E8C0E0EAC0E07A007880760008A9
:1005E0000AEAB432F8D0E0AAE0D0E0A8E0D0D0D057
:1005F000E022C0E0C0D0E8C0E0EAC0E07A00788045
:10060000E6540F2430F6080AEAB40FF4D0E0AAE06A
:10061000D0E0A8E0D0D0D0E022C0E0C0D078807593
:100620006600E6640B600E08E89480F566E5626596
:1006300066600280EDD0D0D0E022C0E0C0D0E8C03B
:10064000E07880756900E6A2E492F4A2E092F3A259
:10065000E192F2A2E292F1A2E392F0E5F0F608054F
:1006600069E569B410E0D0E0F8D0D0D0E022C0E075
:10067000C0D0E8C0E07880756A0075F000E6A2F6A8
:1006800092E575F000A2E492E6A2E092F4A2E39271
:10069000F2A2E292F1A2E192F0A2E592F3A2E6E5E3
:1006A000F092F6F608056AE56AB410D1D0E0F8D009
:1006B000D0D0E022C0E0C0D0E8C0E07880756B0008
:1006C00075F000E6A2E492F0A2E092F1A2E192F2CB
:1006D000A2E292F3A2E392F4E5F0F608056BE56B73
:1006E000B410E0D0E0F8D0D0D0E022C0E0C0D078A4
:1006F0008F7990756700E6F718090567E567B4100C
:01070000F503
:1007010078907980756700E6F708090567E567B4B1
:1007110010F5D0D0D0E022C0E0C0D0C2A4D2A275E2
:100721006C60B2A3B15FD56CF9D2A4D0D0D0E02275
:10073100C0E0C0D0C2A4C2A2756C60B2A3B15FD543
:100741006CE0D2A4D0D0D0E022C0E0C0D0E8C0E0BC
:1007510078A0764978A1762478A2769678A376DB7C
:1007610078A4766D78A576FAD0E0A8E0D0D0D0E074
:1007710022C0E0C0D0E8C0E078A076A678A1769A41
:1007810078A2766978A376A678A4769A78A5766910
:10079100D0E0A8E0D0D0D0E022C0E0C0D0E8C0E0F6
:1007A100C2A478A0756D08E6C333F64005D2A20253
:1007B10007B5C2A2B2A3B15FB2A3B15FD56DE8081C
:1007C100B8A6E1D2A4D0E0F8D0D0D0E022C0E0C0F9
:1007D100D0E8C0E078A0756A0075F000C3A2F0E629
:1007E10013F692F008056AE56AB406F178A0E6A26C
:1007F100F092E7F6D0E0F8D0D0D0E022C0E0C0D04F
:10080100755A00755B1012074AE55A600DA85A1215
:1008110007CE1207CE1207CED8F512079A055AD580
:100821005BE4D0D0D0E022C0E0C0D0755A00755B47
:100831001012074AE55A600DA85A1207CE1207CEC8
:100841001207CED8F512079A055AD55BE4D0D0D05D
:02085100E022A3
:00000001FF
