:03000000020300F8
:0300030002057D76
:030013000205D310
:03000B0002065892
:0300230002060EC4
:03002B00020F3B86
:10030000D288D28AC2AAC2A8D2AF758901758A01E1
:10031000758C00D2A9D2AFC28CC29FD29ED29CD281
:10032000AFD2AC758DFC758BFC758920D2ACD28EAA
:1003300075C90075C80075CCBF75CDE0D2ADC2CA15
:100340007540007564007554FF1206F912082512F5
:100350000BE47570087571017552FE755370120BC0
:100360000A12086412098C120DF2755910755C029C
:100370001207D6120E8730B44330B525E541701C04
:10038000E55D7070E53E704EE572704AE55470E6CA
:10039000E55F703C20A5DF0203D080DAC28C020446
:1003A000387540FF1209CC120A1C75640075994912
:1003B000E56460FC75640075400080BA7540FF120A
:1003C00008071209F4120A1C75640075995080E040
:1003D00030A5FD020524120DF5E55660AF75994173
:1003E000E56460FC7564001556120E11120A1C12A9
:1003F0000E618082E56F600520B307808F20B30215
:10040000808A120DF5759940E56460FC75640012F0
:100410000BA6120EEB120A1C120EEB120A1C120E85
:10042000EB120A1C120F13120A1C120F13120A1CD1
:10043000120F13120A1C6176120B62E551642460DC
:1004400053E551642A6056E55164256053E55164D3
:10045000266053E55164276053E55164286053E5F5
:100460005164296056E55164306056E551643A6044
:1004700056E551643C6056E55164316056E551647F
:10048000326056E55164336056E55164346056126B
:1004900008256176120B30120A1C0204F4020506CC
:1004A000120ABC0204F4120807020515120817020A
:1004B0000515120ABC120ABC0204F4120C0B020449
:1004C000EB120C7E0204EB120DF20204FD120DF58C
:1004D0000204FD120DF80204EB120AE30204F41206
:1004E0000E9D0204F4120EC40204F412082575993C
:1004F0005502051B12082575995602051B12082581
:1005000075995402051B120825759959120B76121C
:100510000ABC02051B12082575995AE56460FC7532
:1005200064006176120817C2A8120724E563B40CB0
:1005300003020565B40A0302053DB40B28120887BF
:100540001207A7E53F701E1206C41208641206F9CE
:10055000120825756400759958E56460FC7564009F
:100560007540006176756400759957E56460FC75A7
:1005700064007540001208641206F96176C0E0C09C
:10058000D0E8C0E07540FFE55F700620A63C755FCF
:10059000FF855EE0A2A6B31385E05E8560E064049B
:1005A000600505600205CA855EE0131313541F85BC
:1005B000E05E756000A868A65E0805628868E5626E
:1005C000643160030205CA1206F9D0E0A8E0D0D079
:1005D000D0E032C2AAC0E0C0D0120DE9120DE9127B
:1005E0000DE920B320120DE9120DE9120DE920B337
:1005F00014120DE9120DE9120DE9120DE920B305EF
:100600007555FF0556D0D0D0E0D2AAC28B32C0E0DB
:10061000C0D089E0C0E020980620992902064AE56A
:1006200040702AD28C8550E02544A9E08599E0A746
:10063000E0054415437545FF758A01758C00D28C21
:10064000C29802064A7564FFC29902064FC298D04A
:10065000E0A9E0D0D0D0E032C0E0C0D0E545601ADB
:10066000E54614F5467013E54714F54770097541E2
:10067000FF75450002067A854846E54F601AE54A4F
:1006800014F54A7013E54B14F54B70097542FF756C
:100690004F00020698854C4AD0D0D0E032C0E0C06E
:1006A000D0E8C0E0EAC0E07A007880E6540FCA6A79
:1006B000CA08B40FF68A65D0E0AAE0D0E0A8E0D07E
:1006C000D0D0E022C0E0C0D0E8C0E07540FF788024
:1006D00075620FE6F59908E56460FC75640075596C
:1006E00010755C021207D61207D6D562E675400077
:1006F000D0E0A8E0D0D0D0E022C0E0C0D0756880C3
:100700007880756000755F007555007562007561D1
:1007100000755E00753F00C289E5547002D2A8D012
:10072000D0D0E022C0E0C0D0E8C0E07880E6B40BD2
:100730000C788EE6B41F0675630A02078E788FE682
:10074000B40D03020761B41A0302075BB406030287
:100750000767B4030302076D0207731208AE0207AE
:10076000821208AE02077F1208AE02077C1208AEA2
:100770000207791208AE1208E21208E21208E21229
:1007800008E212092812095F75630B02078ED19DDA
:10079000788FE6540FF6E56566600375630CD0E06C
:1007A000A8E0D0D0D0E022C0E0C0D0E8C0E078809F
:1007B000E6643B70157881756600E6643F600B085F
:1007C0000566E566B40DF30207CD753FFFD0E0A8DE
:1007D000E0D0D0D0E022C0E0C0D0C0E089E0C0E0EE
:1007E0008AE0C0E08BE0C0E07909AA5CAB59DBFE8F
:1007F000DAFAD9F6D0E0ABE0D0E0AAE0D0E0A9E0A8
:10080000D0E0D0D0D0E022C0E0C0D0C289D2A8755C
:100810005400D0D0D0E022C0E0C0D0C2A87554FFB0
:10082000D0D0D0E022C0E0C0D0754E10754802751F
:100830004901754C78754D1E754F00754200754421
:1008400000754100754500854846854947754FFF4D
:10085000854C4A854D4B854E437550C0754000D040
:10086000D0D0E022C0E0C0D0E8C0E0EAC0E07A002A
:1008700078807600080AEAB432F8D0E0AAE0D0E046
:10088000A8E0D0D0D0E022C0E0C0D0E8C0E0EAC00C
:10089000E07A007880E6540F2430F6080AEAB40FB4
:1008A000F4D0E0AAE0D0E0A8E0D0D0D0E022C0E0D0
:1008B000C0D0E8C0E07880756900E6A2E492F4A2B6
:1008C000E092F3A2E192F2A2E292F1A2E392F0E5C9
:1008D000F0F6080569E569B410E0D0E0F8D0D0D0B2
:1008E000E022C0E0C0D0E8C0E07880756A0075F012
:1008F00000E6A2F692E575F000A2E492E6A2E0928C
:10090000F4A2E392F2A2E292F1A2E192F0A2E592C5
:10091000F3A2E6E5F092F6F608056AE56AB410D1AE
:10092000D0E0F8D0D0D0E022C0E0C0D0E8C0E0787D
:1009300080756B0075F000E6A2E492F0A2E092F1FF
:10094000A2E192F2A2E292F3A2E392F4E5F0F608B9
:10095000056BE56BB410E0D0E0F8D0D0D0E022C059
:10096000E0C0D0788F7990756700E6F718090567C1
:10097000E567B410F578907980756700E6F70809A7
:100980000567E567B410F5D0D0D0E022C0E0C0D054
:10099000C2A4D2A2756C60B2A3755910755C021224
:1009A00007D6D56CF2D2A4D0D0D0E022C0E0C0D01F
:1009B000C2A4C2A2756C60B2A3755910755C021214
:1009C00007D6D56CD2D2A4D0D0D0E022C0E0C0D01F
:1009D000E8C0E078B0764978B1762478B276967837
:1009E000B376DB78B4766D78B576FAD0E0A8E0D04F
:1009F000D0D0E022C0E0C0D0E8C0E078B076A678E1
:100A0000B1769A78B2766978B376A678B4769A7821
:100A1000B57669D0E0A8E0D0D0D0E022C0E0C0D068
:100A2000E8C0E0C2A478B0756D08E6C333F64005AF
:100A3000D2A2020A37C2A2B2A385705985715C1294
:100A400007D6B2A385705985715C1207D6D56DDAC9
:100A500008B8B6D3D2A4D0E0F8D0D0D0E022C0E01D
:100A6000C0D0E8C0E078B5756A0075F000C3A2F7A1
:100A7000E633F692F718056AE56AB406F178B5E64A
:100A8000A2F792E0F6D0E0F8D0D0D0E022C0E0C0EB
:100A9000D0E8C0E078B0756A0075F000C3A2F0E657
:100AA00013F692F008056AE56AB406F178B0E6A29A
:100AB000F092E7F6D0E0F8D0D0D0E022C0E0C0D08D
:100AC000755A00755B10120B30E55A600AA85A512E
:100AD0008D518D518DD8F8511C055AD55BE8D0D079
:100AE000D0E022C0E0C0D0755A00755B10120B3008
:100AF000E55A600AA85A515E515E515ED8F8511C01
:100B0000055AD55BE8D0D0D0E022C0E0C0D0755AFD
:100B100000755B1031CCE55A600AA85A518D518D91
:100B2000518DD8F8511C055AD55BE9D0D0D0E022C0
:100B3000C0E0C0D0E8C0E0E9C0E079C00978B0E723
:100B4000F60908E7F60908E7F60908E7F60908E7ED
:100B5000F60908E7F60908D0E0F9D0E0F8D0D0D0DF
:100B6000E022C0E0C0D0E8C0E078C08651D0E0A864
:100B7000E0D0D0D0E022C0E0C0D0C2A085525985DC
:100B8000535C120B8CD2A0D0D0D0E022C0E0C0D0F9
:100B9000E55914F55970F97559FFE55C14F55C7069
:100BA000EFD0D0D0E022C0E0C0D0B2A185575985A7
:100BB000585C718CB2A185575985585C718CD0D026
:100BC000D0E022C0D0C0E088E0C0E089E0C0E0789A
:100BD0000179FFD9FED8FAD0E0A9E0D0E0A8E0D0B2
:100BE000E0D0D022C0E0C0D0C291D290D2B7C293A0
:100BF000C292D294755D00756F00755600753E0007
:100C0000755500757200D0D0D0E022C0E0C0D0E8A9
:100C1000C0E078C1E66012540F600EE6540F640124
:100C20006010E6540F640260127552FE7553700234
:100C30000C447552FE7553A0020C4475527F7553D7
:100C40000C020C4478C1E6601254F0600EE654F0D9
:100C500064106010E654F0642060127557FE7558F9
:100C600070020C767557FE7558E0020C7675577F4A
:100C7000755812020C76D0E0F8D0D0D0E022C0E057
:100C8000C0D0E8C0E078C1E6700B755D00753E002D
:100C9000C2AA020DE178C1E664017006755DFF022B
:100CA0000CA5755D0078C1E654F064107006753EC1
:100CB000FF020CB7753E0078C1E6640270067572DB
:100CC000FF020CC775720078C2866EE56E540F8500
:100CD000E06E6400602AE56E6401602FE56E6402D8
:100CE0006034E56E64036039E56E6404603EE56E71
:100CF00064056043E56E64066048E56E6407604D18
:100D0000C291C290C2A1D2B7020D58C291C290D274
:100D1000A1D2B7020D58C291D290C2A1D2B7020D92
:100D200058C291D290D2A1D2B7020D58C291C290AE
:100D3000C2A1C2B7020D58C291C290D2A1C2B702DD
:100D40000D58C291D290C2A1C2B7020D58C291D221
:100D500090D2A1C2B7020D5878C2866EE56E54F0EB
:100D600085E06E6400602AE56E64106030E56E64B4
:100D7000206036E56E6430603CE56E6440604CE5B2
:100D80006E64506051E56E64606040E56E64706052
:100D900045C293D292D294756FFF020DE1C293C205
:100DA00092D294756F00020DE1C293D292C29475F3
:100DB0006FFF020DE1C293C292C294756F00020DE3
:100DC000E1C2AA020DE1C2AA020DE1C293C292C21F
:100DD00094D2AA020DE1C293C292C294D2AA020D89
:100DE000E1D0E0F8D0D0D0E02271C371C371C371FB
:100DF000C322C2A722D2A722C0E0C0D0E8C0E078B8
:100E0000C1E6F57078C2E6F571D0E0F8D0D0D0E058
:100E100022C0E0C0D0E8C0E078B076DB78B1766D73
:100E200078B276B678B376DB78B4766D78B576B787
:100E3000D0E0A8E0D0D0D0E022C0E0C0D0E8C0E050
:100E400078B0760078B1760078B2760078B3760024
:100E500078B4760078B57600D0E0A8E0D0D0D0E0C5
:100E600022C0E0C0D0755A00755B10D111E55A6000
:100E70000AA85A518D518D518DD8F8511C055AD55B
:100E80005BE9D0D0D0E022C0D0C0E0756400759995
:100E900042E56460FC756400D0E0D0D022C0E0C0C0
:100EA000D0E8C0E078C1867478C2867578C386764B
:100EB00078C4867778C5867878C68679D0E0F8D009
:100EC000D0D0E022C0E0C0D0E8C0E078C1867A7817
:100ED000C2867B78C3867C78C4867D78C5867E781A
:100EE000C6867FD0E0F8D0D0D0E022C0E0C0D0E805
:100EF000C0E078B0A67478B1A67578B2A67678B35B
:100F0000A67778B4A67878B5A679D0E0A8E0D0D056
:100F1000D0E022C0E0C0D0E8C0E078B0A67A78B1D6
:100F2000A67B78B2A67C78B3A67D78B4A67E78B589
:100F3000A67FD0E0A8E0D0D0D0E022C0E0C0D0753D
:100F40008E0875A61E75A6E175CCBF75CDE0D0D014
:100F5000D0E03200000000000000000000000000AF
:100F60000000000000000000000000000000000081
:100F70000000000000000000000000000000000071
:100F80000000000000000000000000000000000061
:100F90000000000000000000000000000000000051
:100FA0000000000000000000000000000000000041
:100FB0000000000000000000000000000000000031
:010FC0000030
:00000001FF
