:03000000020300F8
:03000300020410E4
:03000B000204AD3F
:0300230002046371
:10030000D288D28AC2AAD2A8D2AF758901758A01D1
:10031000758C00D2A9D2AFC28CC29FD29ED29CD281
:10032000AFD2AC758DFC758BFC758920D2ACD28EAA
:100330007540007564001205481206601208D51257
:10034000069F1207C71207E030B42A30B515E54101
:10035000700CE55F70342095EF02038A80EAC28C4E
:100360000203BC1207F91208497564007599B1E5DA
:100370006460FC80D3120652120821120849756489
:10038000007599B2E56460FC80BE3095FDC2A8128C
:10039000056DE563B40C030203B4B40A030203A3BE
:1003A000B40B111206C212051912069F120548124B
:1003B00008D5809412069F120548808C12092EE5FC
:1003C000516424601DE551642A6022E55164256072
:1003D00027E55164266029E5516427602B120660E9
:1003E00061481208FC12084912066061481209426D
:1003F0001208AE12066061481208AE12066061482B
:10040000120652120660614812065A1206606148CE
:10041000C0E0C0D0E8C0E0E55F700620973C755FA3
:10042000FF855EE0A297B31385E05E8560E064041B
:100430006005056002045A855EE0131313541F859E
:10044000E05E756000A868A65E0805628868E562DF
:100450006431600302045A120548D0E0A8E0D0D00D
:10046000D0E032C0E0C0D089E0C0E02098062099FA
:100470002902049FE540702AD28C8550E02544A9CA
:10048000E08599E0A7E0054415437545FF758A01AD
:10049000758C00D28CC29802049F7564FFC29902C9
:1004A00004A4C298D0E0A9E0D0D0D0E032C0E0C02F
:1004B000D0E545601AE54614F5467013E54714F596
:1004C0004770097541FF7545000204CF854846E530
:1004D0004F601AE54A14F54A7013E54B14F54B705A
:1004E000097542FF754F000204ED854C4AD0D0D00B
:1004F000E032C0E0C0D0E8C0E0EAC0E07A00788036
:10050000E6540FCA6ACA08B40FF68A65D0E0AAE0BA
:10051000D0E0A8E0D0D0D0E022C0E0C0D0E8C0E079
:100520007540FF788075620FE6F59908E56460FC18
:100530007564001205F01205F0D562EC754000D02C
:10054000E0A8E0D0D0D0E022C0E0C0D075688078CC
:1005500080756000755F00756200756100755E00F2
:10056000C289E5547002D2A8D0D0D0E022C0E0C049
:10057000D0E8C0E07880E6B40B0C788EE6B41F06B5
:1005800075630A0205D7788FE6B40D030205AAB495
:100590001A030205A4B406030205B0B4030302055E
:1005A000B60205BC1206E90205CB1206E90205C82F
:1005B0001206E90205C51206E90205C21206E91291
:1005C000071D12071D12071D12071D1207631207D0
:1005D0009A75630B0205D791F2788FE6540FF6E512
:1005E0006566600375630CD0E0A8E0D0D0D0E0224F
:1005F000C0E0C0D0C0E089E0C0E08AE0C0E08BE0AD
:10060000C0E079097A027B10DBFEDAFAD9F6D0E095
:10061000ABE0D0E0AAE0D0E0A9E0D0E0D0D0D0E0DC
:1006200022C0E0C0D0C0E089E0C0E08AE0C0E08B3A
:10063000E0C0E079097A027B08DBFEDAFAD9F6D06D
:10064000E0ABE0D0E0AAE0D0E0A9E0D0E0D0D0D0AC
:10065000E022C289D2A875540022C2A87554FF2294
:10066000C0E0C0D0754E10754802754901754C78D0
:10067000754D1E754F00754200754400754100753B
:100680004500854846854947754FFF854C4A854D4D
:100690004B854E437550C0754000D0D0D0E022C08D
:1006A000E0C0D0E8C0E0EAC0E07A007880760008D8
:1006B0000AEAB432F8D0E0AAE0D0E0A8E0D0D0D086
:1006C000E022C0E0C0D0E8C0E0EAC0E07A00788074
:1006D000E6540F2430F6080AEAB40FF4D0E0AAE09A
:1006E000D0E0A8E0D0D0D0E022C0E0C0D0E8C0E0A8
:1006F0007880756900E6A2E492F4A2E092F3A2E1A8
:1007000092F2A2E292F1A2E392F0E5F0F608056916
:10071000E569B410E0D0E0F8D0D0D0E022C0E0C06D
:10072000D0E8C0E07880756A0075F000E6A2F69225
:10073000E575F000A2E492E6A2E092F4A2E392F260
:10074000A2E292F1A2E192F0A2E592F3A2E6E5F034
:1007500092F6F608056AE56AB410D1D0E0F8D0D078
:10076000D0E022C0E0C0D0E8C0E07880756B0075B2
:10077000F000E6A2E492F0A2E092F1A2E192F2A2ED
:10078000E292F3A2E392F4E5F0F608056BE56BB4B0
:1007900010E0D0E0F8D0D0D0E022C0E0C0D0788F18
:1007A0007990756700E6F718090567E567B410F5F5
:1007B00078907980756700E6F708090567E567B402
:1007C00010F5D0D0D0E022C0E0C0D0C2A4D2A27533
:1007D0006C60B2A3B1F0D56CF9D2A4D0D0D0E02235
:1007E000C0E0C0D0C2A4C2A2756C60B2A3B1F0D503
:1007F0006CE0D2A4D0D0D0E022C0E0C0D0E8C0E00D
:1008000078B0764978B1762478B2769678B376DB8C
:1008100078B4766D78B576FAD0E0A8E0D0D0D0E0A4
:1008200022C0E0C0D0E8C0E078B076A678B1769A71
:1008300078B2766978B376A678B4769A78B5766920
:10084000D0E0A8E0D0D0D0E022C0E0C0D0E8C0E046
:10085000C2A478B0756D08E6C333F64005D2A20293
:100860000864C2A2B2A3120621B2A3120621D56D5A
:10087000E608B8B6DFD2A4D0E0F8D0D0D0E022C0ED
:10088000E0C0D0E8C0E078B0756A0075F000C3A29F
:10089000F0E613F692F008056AE56AB406F178B05E
:1008A000E6A2F092E7F6D0E0F8D0D0D0E022C0E0A7
:1008B000C0D0755A00755B101208FCE55A600AA892
:1008C0005A117F117F117FD8F81149055AD55BE87D
:1008D000D0D0D0E022C0E0C0D0755A00755B1012B5
:1008E00007F9E55A600AA85A117F117F117FD8F8DD
:1008F0001149055AD55BE8D0D0D0E022C0E0C0D085
:10090000E8C0E0E9C0E079C00978B0E7F60908E797
:10091000F60908E7F60908E7F60908E7F60908E71F
:10092000F60908D0E0F9D0E0F8D0D0D0E022C0E05D
:10093000C0D0E8C0E078C08651D0E0A8E0D0D0D0E8
:10094000E022C0E0C0D0C2A0120952D2A0D0D0D0C4
:10095000E022C0E0C0D07552FE755370E55214F528
:100960005270F97552FFE55314F55370EFD0D0D0A3
:02097000E02283
:00000001FF
