:03000000020300F8
:03000300020546AD
:0300130002059C47
:03000B00020621C9
:030023000205D7FC
:03002B00020E1BA7
:10030000D288D28AC2AAC2A8D2AF758901758A01E1
:10031000758C00D2A9D2AFC28CC29FD29ED29CD281
:10032000AFD2AC758DFC758BFC758920D2ACD28EAA
:1003300075C90075C80075CCBF75CDE0D2ADC2CA15
:100340007540007564007554FF1206C21207EE1264
:100350000BAD7570087571017552FE755370120AF8
:10036000D312082D120955120D98755910755C029B
:1003700012079F120E0530B43F30B521E5417018C9
:10038000E55D706CE53E704AE55470EAE55F703CEF
:1003900020A5E30203CC80DEC28C0204197540FF65
:1003A0001209951209E5756400759949E56460FCC8
:1003B00075640075400080BE7540FF1207D01209B9
:1003C000BD1209E575640075995080E030A5FD0205
:1003D00004ED120D9BE55660AF759941E56460FC34
:1003E0007564001556120DB71209E5120DDF8086EF
:1003F000E56F600520B307808F20B302808A120D5D
:100400009B759940E56460FC756400120B6F120DDA
:10041000B71209E5120DDF6176120B2BE55164244A
:100420006047E551642A604AE55164256047E5511B
:1004300064266047E55164276047E55164286047BA
:10044000E5516429604AE5516430604AE551643AF7
:10045000604AE551643C604AE5516431604AE551C7
:100460006432604A1207EE6176120AF91209E50257
:1004700004BD0204CF120A850204BD1207D0020493
:10048000DE1207E00204DE120A85120A850204BDAC
:10049000120BD10204B4120C440204B4120D9802DF
:1004A00004C6120D9B0204C6120D9E0204B4120A69
:1004B000AC0204BD1207EE7599550204E41207EE72
:1004C0007599560204E41207EE7599540204E41279
:1004D00007EE759959120B3F120A850204E41207C0
:1004E000EE75995AE56460FC75640061761207E068
:1004F000C2A81206EDE563B40C0302052EB40A038C
:10050000020506B40B28120850120770E53F701E52
:1005100012068D12082D1206C21207EE75640075C0
:100520009958E56460FC75640075400061767564F7
:1005300000759957E56460FC756400754000120809
:100540002D1206C26176C0E0C0D0E8C0E07540FF61
:10055000E55F700620A63C755FFF855EE0A2A6B34E
:100560001385E05E8560E064046005056002059324
:10057000855EE0131313541F85E05E756000A86864
:10058000A65E0805628868E562643160030205932F
:100590001206C2D0E0A8E0D0D0D0E032C2AAC0E0BB
:1005A000C0D0120D8F120D8F120D8F20B320120D9F
:1005B0008F120D8F120D8F20B314120D8F120D8F0D
:1005C000120D8F120D8F20B3057555FF0556D0D033
:1005D000D0E0D2AAC28B32C0E0C0D089E0C0E02017
:1005E0009806209929020613E540702AD28C85507E
:1005F000E02544A9E08599E0A7E005441543754549
:10060000FF758A01758C00D28CC29802061375643E
:10061000FFC299020618C298D0E0A9E0D0D0D0E07D
:1006200032C0E0C0D0E545601AE54614F5467013C7
:10063000E54714F54770097541FF7545000206430B
:10064000854846E54F601AE54A14F54A7013E54BB4
:1006500014F54B70097542FF754F00020661854C19
:100660004AD0D0D0E032C0E0C0D0E8C0E0EAC0E07C
:100670007A007880E6540FCA6ACA08B40FF68A6511
:10068000D0E0AAE0D0E0A8E0D0D0D0E022C0E0C026
:10069000D0E8C0E07540FF788075620FE6F59908F4
:1006A000E56460FC756400755910755C0212079F63
:1006B00012079FD562E6754000D0E0A8E0D0D0D008
:1006C000E022C0E0C0D07568807880756000755FFA
:1006D00000755500756200756100755E00753F001C
:1006E000C289E5547002D2A8D0D0D0E022C0E0C0C8
:1006F000D0E8C0E07880E6B40B0C788EE6B41F0634
:1007000075630A020757788FE6B40D0302072AB40F
:100710001A03020724B40603020730B403030207D6
:100720003602073C12087702074B12087702074887
:10073000120877020745120877020742120877125B
:1007400008AB1208AB1208AB1208AB1208F1120981
:100750002875630B020757D166788FE6540FF6E5CC
:100760006566600375630CD0E0A8E0D0D0D0E022CD
:10077000C0E0C0D0E8C0E07880E6643B70157881C6
:10078000756600E6643F600B080566E566B40DF328
:10079000020796753FFFD0E0A8E0D0D0D0E022C09D
:1007A000E0C0D0C0E089E0C0E08AE0C0E08BE0C0FB
:1007B000E07909AA5CAB59DBFEDAFAD9F6D0E0ABF6
:1007C000E0D0E0AAE0D0E0A9E0D0E0D0D0D0E022B4
:1007D000C0E0C0D0C289D2A8755400D0D0D0E022E9
:1007E000C0E0C0D0C2A87554FFD0D0D0E022C0E095
:1007F000C0D0754E10754802754901754C78754D1D
:100800001E754F0075420075440075410075450026
:10081000854846854947754FFF854C4A854D4B8530
:100820004E437550C0754000D0D0D0E022C0E0C02B
:10083000D0E8C0E0EAC0E07A0078807600080AEAF2
:10084000B432F8D0E0AAE0D0E0A8E0D0D0D0E022E6
:10085000C0E0C0D0E8C0E0EAC0E07A007880E654AA
:100860000F2430F6080AEAB40FF4D0E0AAE0D0E092
:10087000A8E0D0D0D0E022C0E0C0D0E8C0E07880CE
:10088000756900E6A2E492F4A2E092F3A2E192F28A
:10089000A2E292F1A2E392F0E5F0F6080569E569BB
:1008A000B410E0D0E0F8D0D0D0E022C0E0C0D0E872
:1008B000C0E07880756A0075F000E6A2F692E575F2
:1008C000F000A2E492E6A2E092F4A2E392F2A2E2A5
:1008D00092F1A2E192F0A2E592F3A2E6E5F092F69F
:1008E000F608056AE56AB410D1D0E0F8D0D0D0E0BF
:1008F00022C0E0C0D0E8C0E07880756B0075F000E1
:10090000E6A2E492F0A2E092F1A2E192F2A2E292D7
:10091000F3A2E392F4E5F0F608056BE56BB410E0A2
:10092000D0E0F8D0D0D0E022C0E0C0D0788F79906D
:10093000756700E6F718090567E567B410F5789064
:100940007980756700E6F708090567E567B410F573
:10095000D0D0D0E022C0E0C0D0C2A4D2A2756C60DA
:10096000B2A3755910755C0212079FD56CF2D2A420
:10097000D0D0D0E022C0E0C0D0C2A4C2A2756C60CA
:10098000B2A3755910755C0212079FD56CD2D2A420
:10099000D0D0D0E022C0E0C0D0E8C0E078B0764946
:1009A00078B1762478B2769678B376DB78B4766DC3
:1009B00078B576FAD0E0A8E0D0D0D0E022C0E0C090
:1009C000D0E8C0E078B076A678B1769A78B2766949
:1009D00078B376A678B4769A78B57669D0E0A8E050
:1009E000D0D0D0E022C0E0C0D0E8C0E0C2A478B04F
:1009F000756D08E6C333F64005D2A2020A00C2A212
:100A0000B2A385705985715C12079FB2A385705996
:100A100085715C12079FD56DDA08B8B6D3D2A4D021
:100A2000E0F8D0D0D0E022C0E0C0D0E8C0E078B597
:100A3000756A0075F000C3A2F7E633F692F7180561
:100A40006AE56AB406F178B5E6A2F792E0F6D0E07E
:100A5000F8D0D0D0E022C0E0C0D0E8C0E078B075D7
:100A60006A0075F000C3A2F0E613F692F008056A7A
:100A7000E56AB406F178B0E6A2F092E7F6D0E0F8C5
:100A8000D0D0D0E022C0E0C0D0755A00755B101203
:100A90000AF9E55A600AA85A515651565156D8F8E3
:100AA00031E5055AD55BE8D0D0D0E022C0E0C0D017
:100AB000755A00755B10120AF9E55A600AA85A5176
:100AC0002751275127D8F831E5055AD55BE8D0D012
:100AD000D0E022C0E0C0D0755A00755B103195E5BA
:100AE0005A600AA85A515651565156D8F831E50560
:100AF0005AD55BE9D0D0D0E022C0E0C0D0E8C0E059
:100B0000E9C0E079C00978B0E7F60908E7F6090816
:100B1000E7F60908E7F60908E7F60908E7F609081D
:100B2000D0E0F9D0E0F8D0D0D0E022C0E0C0D0E8EA
:100B3000C0E078C08651D0E0A8E0D0D0D0E022C09C
:100B4000E0C0D0C2A085525985535C120B55D2A08B
:100B5000D0D0D0E022C0E0C0D0E55914F55970F9EA
:100B60007559FFE55C14F55C70EFD0D0D0E022C081
:100B7000E0C0D0B2A185575985585C7155B2A185A6
:100B8000575985585C7155D0D0D0E022C0D0C0E014
:100B900088E0C0E089E0C0E0780179FFD9FED8FAAA
:100BA000D0E0A9E0D0E0A8E0D0E0D0D022C0E0C002
:100BB000D0C291D290D2B7C293C292D294755D0046
:100BC000756F00755600753E00755500D0D0D0E0A9
:100BD00022C0E0C0D0E8C0E078C1E66012540F60E7
:100BE0000EE6540F64016010E6540F640260127543
:100BF00052FE755370020C0A7552FE7553A0020C1A
:100C00000A75527F75530C020C0A78C1E6601254C3
:100C1000F0600EE654F064106010E654F06420605A
:100C2000127557FE755825020C3C7557FE755847CE
:100C3000020C3C75577F755812020C3CD0E0F8D07E
:100C4000D0D0E022C0E0C0D0E8C0E078C1E66401C6
:100C50007006755DFF020C5B755D0078C1E654F0AF
:100C600064107006753EFF020C6D753E0078C286FA
:100C70006EE56E540F85E06E6400602AE56E6401D7
:100C8000602FE56E64026034E56E64036039E56EE2
:100C90006404603EE56E64056043E56E640660488A
:100CA000E56E6407604DC291C290C2A1D2B7020C3A
:100CB000FEC291C290D2A1D2B7020CFEC291D290D4
:100CC000C2A1D2B7020CFEC291D290D2A1D2B70279
:100CD0000CFEC291C290C2A1C2B7020CFEC291C268
:100CE00090D2A1C2B7020CFEC291D290C2A1C2B7EB
:100CF000020CFEC291D290D2A1C2B7020CFE78C201
:100D0000866EE56E54F085E06E6400602AE56E64E0
:100D1000106030E56E64206036E56E6430603CE55E
:100D20006E6440604CE56E64506051E56E646060D6
:100D300040E56E64706045C293D292D294756FFFA5
:100D4000020D87C293C292D294756F00020D87C2C2
:100D500093D292C294756FFF020D87C293C292C262
:100D600094756F00020D87C2AA020D87C2AA020DF8
:100D700087C293C292C294D2AA020D87C293C29232
:100D8000C294D2AA020D87D0E0F8D0D0D0E0227170
:100D90008C718C718C718C22C2A722D2A722C0E0E8
:100DA000C0D0E8C0E078C1E6F57078C2E6F571D051
:100DB000E0F8D0D0D0E022C0E0C0D0E8C0E078B009
:100DC00076DB78B1766D78B276B678B376DB78B4C8
:100DD000766D78B576B7D0E0A8E0D0D0D0E022C06C
:100DE000E0C0D0755A00755B10B1B7E55A600AA82B
:100DF0005A515651565156D8F831E5055AD55BE946
:100E0000D0D0D0E022C0D0C0E0756400759942E532
:100E10006460FC756400D0E0D0D022C0E0C0D07522
:100E20008E0875A61E75A6E175CCBF75CDE0D0D035
:100E3000D0E03200000000000000000000000000D0
:100E400000000000000000000000000000000000A2
:100E50000000000000000000000000000000000092
:100E60000000000000000000000000000000000082
:100E70000000000000000000000000000000000072
:100E80000000000000000000000000000000000062
:100E90000000000000000000000000000000000052
:100EA0000000000000000000000000000000000042
:100EB0000000000000000000000000000000000032
:100EC0000000000000000000000000000000000022
:100ED0000000000000000000000000000000000012
:100EE0000000000000000000000000000000000002
:100EF00000000000000000000000000000000000F2
:100F000000000000000000000000000000000000E1
:100F100000000000000000000000000000000000D1
:080F20000000000000000000C9
:00000001FF
