:03000000020300F8
:03000300020414E0
:03000B000204BA32
:0300230002047064
:10030000D288D28AC2AAD2A8D2AF758901758A01D1
:10031000758C00D2A9D2AFC28CC29FD29ED29CD281
:10032000AFD2AC758DFC758BFC758920D2ACD28EAA
:1003300075400075640012055512066D1208E21230
:1003400006AC1207D41207ED30B42D30B515E541D7
:10035000700CE55F70332095EF02038980EAC28C50
:100360000203BB1208061208567564007599B1E5C0
:100370006460FC75640080D012065F12082E1208BB
:10038000567564007599B280E63095FDC2A81205D5
:100390007AE563B40C030203B3B40A030203A2B404
:1003A0000B111206CF1205261206AC1205551208C3
:1003B000E280951206AC120555808D12093AE5517E
:1003C0006424601DE551642A6020E55164256023A2
:1003D000E55164266023E5516427602312066D61B0
:1003E0004812090812085602040512094E1208BBE9
:1003F0000204051208BB02040512065F020405127E
:10040000066702040512066D759955E56460FC7572
:1004100064006148C0E0C0D0E8C0E0E55F7006203D
:10042000973C755FFF855EE0A297B31385E05E851C
:1004300060E064046005056002045E855EE01313FD
:1004400013541F85E05E756000A868A65E0805620B
:100450008868E5626431600302045E120555D0E0ED
:10046000A8E0D0D0D0E032C0E0C0D0D0D0D0E032D0
:10047000C0E0C0D089E0C0E020980620992902049D
:10048000ACE540702AD28C8550E02544A9E08599DE
:10049000E0A7E0054415437545FF758A01758C009A
:1004A000D28CC2980204AC7564FFC2990204B1C236
:1004B00098D0E0A9E0D0D0D0E032C0E0C0D0E5458F
:1004C000601AE54614F5467013E54714F5477009C0
:1004D0007541FF7545000204DC854846E54F601A0A
:1004E000E54A14F54A7013E54B14F54B7009754253
:1004F000FF754F000204FA854C4AD0D0D0E032C0DC
:10050000E0C0D0E8C0E0EAC0E07A007880E6540FAE
:10051000CA6ACA08B40FF68A65D0E0AAE0D0E0A89B
:10052000E0D0D0D0E022C0E0C0D0E8C0E07540FF0D
:10053000788075620FE6F59908E56460FC756400E3
:100540001205FD1205FDD562EC754000D0E0A8E073
:10055000D0D0D0E022C0E0C0D075688078807560CF
:1005600000755F00756200756100755E00C289E507
:10057000547002D2A8D0D0D0E022C0E0C0D0E8C0F1
:10058000E07880E6B40B0C788EE6B41F0675630A3B
:100590000205E4788FE6B40D030205B7B41A03022E
:1005A00005B1B406030205BDB403030205C3020589
:1005B000C91206F60205D81206F60205D51206F68D
:1005C0000205D21206F60205CF1206F612072A120B
:1005D000072A12072A12072A1207701207A7756343
:1005E0000B0205E491FF788FE6540FF6E56566602F
:1005F0000375630CD0E0A8E0D0D0D0E022C0E0C00A
:10060000D0C0E089E0C0E08AE0C0E08BE0C0E079E3
:10061000097A027B10DBFEDAFAD9F6D0E0ABE0D043
:10062000E0AAE0D0E0A9E0D0E0D0D0D0E022C0E065
:10063000C0D0C0E089E0C0E08AE0C0E08BE0C0E06C
:1006400079097A027B08DBFEDAFAD9F6D0E0ABE072
:10065000D0E0AAE0D0E0A9E0D0E0D0D0D0E022C243
:1006600089D2A875540022C2A87554FF22C0E0C0E8
:10067000D0754E10754802754901754C78754D1E40
:10068000754F007542007544007541007545008541
:100690004846854947754FFF854C4A854D4B854EE9
:1006A000437550C0754000D0D0D0E022C0E0C0D02B
:1006B000E8C0E0EAC0E07A0078807600080AEAB490
:1006C00032F8D0E0AAE0D0E0A8E0D0D0D0E022C05C
:1006D000E0C0D0E8C0E0EAC0E07A007880E6540FDD
:1006E0002430F6080AEAB40FF4D0E0AAE0D0E0A87B
:1006F000E0D0D0D0E022C0E0C0D0E8C0E078807583
:0207000069008E
:10070200E6A2E492F4A2E092F3A2E192F2A2E292D1
:10071200F1A2E392F0E5F0F6080569E569B410E0AC
:10072200D0E0F8D0D0D0E022C0E0C0D0E8C0E0787D
:1007320080756A0075F000E6A2F692E575F000A2F7
:10074200E492E6A2E092F4A2E392F2A2E292F1A291
:10075200E192F0A2E592F3A2E6E5F092F6F6080540
:100762006AE56AB410D1D0E0F8D0D0D0E022C0E07F
:10077200C0D0E8C0E07880756B0075F000E6A2E4B6
:1007820092F0A2E092F1A2E192F2A2E292F3A2E34B
:1007920092F4E5F0F608056BE56BB410E0D0E0F8F2
:1007A200D0D0D0E022C0E0C0D0788F7990756700B9
:1007B200E6F718090567E567B410F5789079807552
:1007C2006700E6F708090567E567B410F5D0D0D0F1
:1007D200E022C0E0C0D0C2A4D2A2756C60B2A3B1C4
:1007E200FDD56CF9D2A4D0D0D0E022C0E0C0D0C2F6
:1007F200A4C2A2756C60B2A3B1FDD56CE0D2A4D044
:10080200D0D0E022C0E0C0D0E8C0E078B07649782D
:10081200B1762478B2769678B376DB78B4766D7852
:10082200B576FAD0E0A8E0D0D0D0E022C0E0C0D0C7
:10083200E8C0E078B076A678B1769A78B276697830
:10084200B376A678B4769A78B57669D0E0A8E0D087
:10085200D0D0E022C0E0C0D0E8C0E0C2A478B07539
:100862006D08E6C333F64005D2A2020871C2A2B2F5
:10087200A312062EB2A312062ED56DE608B8B6DF75
:10088200D2A4D0E0F8D0D0D0E022C0E0C0D0E8C0FE
:10089200E078B0756A0075F000C3A2F0E613F69234
:1008A200F008056AE56AB406F178B0E6A2F092E7CC
:1008B200F6D0E0F8D0D0D0E022C0E0C0D0755A0027
:1008C200755B10120908E55A600AA85A118C118C3E
:1008D200118CD8F81156055AD55BE8D0D0D0E02259
:1008E200C0E0C0D0755A00755B101106E55A600A67
:1008F200A85A118C118C118CD8F81156055AD55B57
:10090200E9D0D0D0E022C0E0C0D0E8C0E0E9C0E049
:1009120079C00978B0E7F60908E7F60908E7F609A9
:1009220008E7F60908E7F60908E7F60908D0E0F94A
:10093200D0E0F8D0D0D0E022C0E0C0D0E8C0E0786B
:10094200C08651D0E0A8E0D0D0D0E022C0E0C0D034
:10095200C2A012095ED2A0D0D0D0E022C0E0C0D0A6
:100962007552FE755370E55214F55270F97552FFC7
:10097200E55314F55370EFD0D0D0E022C2A122D2B9
:02098200A122B0
:00000001FF
