:03000000020300F8
:0300030002047282
:03000B00020527C4
:030023000204DDF7
:10030000D288D28AC2AAD2A8D2AF758901758A01D1
:10031000758C00D2A9D2AFC28CC29FD29ED29CD281
:10032000AFD2AC758DFC758BFC758920D2ACD28EAA
:100330007540007564001205C81206E4120A4D12D9
:10034000067612097312072312084B12086B7559AF
:1003500010755C021206A530B43130B519E5417054
:1003600010E55D7070E55F70332095EB02039C80B3
:10037000E6C28C0203F212088B1208DB756400756A
:1003800099B1E56460FC75640080CC1206D6120851
:10039000B31208DB7564007599B280E63095FDC232
:1003A000A81205F3E563B40C030203CDB40A0302FB
:1003B00003B5B40B18120746120676E53F700E120D
:1003C00005931207231205C8120973808A120723A6
:1003D0001205C88082E56F600520B307808720B3CF
:1003E000028082759940E56460FC756400120A0F12
:1003F00061571209CBE5516424602FE551642A60EE
:1004000032E55164256035E55164266035E5516477
:10041000276035E55164286035E55164296038E589
:1004200051643060381206E461571209991208DBF2
:100430000204631209DF12094C02046312094C0220
:1004400004631206D60204631206DE020463120974
:100450004C12094C020463120A60020463120AD3AC
:100460000204631206E4759955E56460FC75640046
:100470006157C0E0C0D0E8C0E0E55F700620973C5F
:10048000755FFF855EE0A297B31385E05E8560E04F
:100490006404600505600204BC855EE01313135418
:1004A0001F85E05E756000A868A65E080562886822
:1004B000E562643160030204BC1205C8D0E0A8E024
:1004C000D0D0D0E032C2AAC0E0C0D0120A2C20B3F3
:1004D000057555FF0556D0D0D0E0D2AA32C0E0C095
:1004E000D089E0C0E0209806209929020519E5404E
:1004F000702AD28C8550E02544A9E08599E0A7E0D8
:10050000054415437545FF758A01758C00D28CC270
:10051000980205197564FFC29902051EC298D0E0C1
:10052000A9E0D0D0D0E032C0E0C0D0E545601AE507
:100530004614F5467013E54714F54770097541FFF9
:10054000754500020549854846E54F601AE54A149D
:10055000F54A7013E54B14F54B70097542FF754F62
:1005600000020567854C4AD0D0D0E032C0E0C0D050
:10057000E8C0E0EAC0E07A007880E6540FCA6ACAB0
:1005800008B40FF68A65D0E0AAE0D0E0A8E0D0D0A9
:10059000D0E022C0E0C0D0E8C0E07540FF788075B0
:1005A000620FE6F59908E56460FC75640075591002
:1005B000755C021206A51206A5D562E6754000D04C
:1005C000E0A8E0D0D0D0E022C0E0C0D0756880784C
:1005D00080756000755F007555007562007561007B
:1005E000755E00753F00C289E5547002D2A8D0D074
:1005F000D0E022C0E0C0D0E8C0E07880E6B40B0CC8
:10060000788EE6B41F0675630A02065D788FE6B43D
:100610000D03020630B41A0302062AB406030206CA
:1006200036B4030302063C02064212076D0206516D
:1006300012076D02064E12076D02064B12076D027D
:10064000064812076D1207A11207A11207A112078F
:10065000A11207E712081E75630B02065DB16C78E4
:100660008FE6540FF6E56566600375630CD0E0A86D
:10067000E0D0D0D0E022C0E0C0D0E8C0E07880E692
:10068000643B70157881756600E6643F600B080571
:1006900066E566B40DF302069C753FFFD0E0A8E066
:1006A000D0D0D0E022C0E0C0D0C0E089E0C0E08A75
:1006B000E0C0E08BE0C0E07909AA5CAB59DBFEDA70
:1006C000FAD9F6D0E0ABE0D0E0AAE0D0E0A9E0D0E3
:1006D000E0D0D0D0E022C289D2A875540022C2A8AE
:1006E0007554FF22C0E0C0D0754E107548027549A0
:1006F00001754C78754D1E754F00754200754400AC
:10070000754100754500854846854947754FFF8509
:100710004C4A854D4B854E437550C0754000D0D036
:10072000D0E022C0E0C0D0E8C0E0EAC0E07A0078C3
:10073000807600080AEAB432F8D0E0AAE0D0E0A857
:10074000E0D0D0D0E022C0E0C0D0E8C0E0EAC0E015
:100750007A007880E6540F2430F6080AEAB40FF4E1
:10076000D0E0AAE0D0E0A8E0D0D0D0E022C0E0C045
:10077000D0E8C0E07880756900E6A2E492F4A2E0D7
:1007800092F3A2E192F2A2E292F1A2E392F0E5F0FA
:10079000F6080569E569B410E0D0E0F8D0D0D0E003
:1007A00022C0E0C0D0E8C0E07880756A0075F00033
:1007B000E6A2F692E575F000A2E492E6A2E092F4D9
:1007C000A2E392F2A2E292F1A2E192F0A2E592F308
:1007D000A2E6E5F092F6F608056AE56AB410D1D013
:1007E000E0F8D0D0D0E022C0E0C0D0E8C0E078800F
:1007F000756B0075F000E6A2E492F0A2E092F1A21F
:10080000E192F2A2E292F3A2E392F4E5F0F6080597
:100810006BE56BB410E0D0E0F8D0D0D0E022C0E0BF
:10082000C0D0788F7990756700E6F718090567E5FD
:1008300067B410F578907980756700E6F7080905C8
:1008400067E567B410F5D0D0D0E022C0E0C0D0C2D8
:10085000A4D2A2756C60B2A3755910755C02120621
:10086000A5D56CF2D2A4D0D0D0E022C0E0C0D0C2D6
:10087000A4C2A2756C60B2A3755910755C02120611
:10088000A5D56CD2D2A4D0D0D0E022C0E0C0D0E8B0
:10089000C0E078B0764978B1762478B2769678B3AD
:1008A00076DB78B4766D78B576FAD0E0A8E0D0D073
:1008B000D0E022C0E0C0D0E8C0E078B076A678B141
:1008C000769A78B2766978B376A678B4769A78B55F
:1008D0007669D0E0A8E0D0D0D0E022C0E0C0D0E877
:1008E000C0E0C2A478B0756D08E6C333F64005D207
:1008F000A20208F6C2A2B2A3755908755C021206DC
:10090000A5B2A3755902755C081206A5D56DDA0863
:10091000B8B6D3D2A4D0E0F8D0D0D0E022C0E0C0A6
:10092000D0E8C0E078B0756A0075F000C3A2F0E6C8
:1009300013F692F008056AE56AB406F178B0E6A20B
:10094000F092E7F6D0E0F8D0D0D0E022C0E0C0D0FE
:10095000755A00755B10120999E55A600AA85A3158
:100960001D311D311DD8F811DB055AD55BE8D0D0FB
:10097000D0E022C0E0C0D0755A00755B10118BE545
:100980005A600AA85A311D311D311DD8F811DB05F6
:100990005AD55BE9D0D0D0E022C0E0C0D0E8C0E0BA
:1009A000E9C0E079C00978B0E7F60908E7F6090878
:1009B000E7F60908E7F60908E7F60908E7F609087F
:1009C000D0E0F9D0E0F8D0D0D0E022C0E0C0D0E84C
:1009D000C0E078C08651D0E0A8E0D0D0D0E022C0FE
:1009E000E0C0D0C2A085525985535C1209F5D2A04F
:1009F000D0D0D0E022C0E0C0D0E55914F55970F94C
:100A00007559FFE55C14F55C70EFD0D0D0E022C0E2
:100A1000E0C0D0B2A185575985585C31F5B2A185A7
:100A2000575985585C31F5D0D0D0E022C0D0C0E015
:100A300088E0C0E089E0C0E0780179FFD9FED8FA0B
:100A4000D0E0A9E0D0E0A8E0D0E0D0D022C291D29E
:100A500090D2B7C293C292D294755D00756F002296
:100A6000C0E0C0D0E8C0E078C1E66012540F600E6C
:100A7000E6540F64016010E6540F64026012755270
:100A8000FE755370020A997552FE7553A0020A99B9
:100A900075527F755330020A9978C1E6601254F09E
:100AA000600EE654F064106010E654F064206012AA
:100AB0007557FE755825020ACB7557FE75584702C3
:100AC0000ACB75577F755812020ACBD0E0F8D0D008
:100AD000D0E022C0E0C0D0E8C0E078C1E6640160A8
:100AE00006755D00020BF0755DFF78C2866EE56EDF
:100AF000540F85E06E6400602AE56E6401602FE5A6
:010B00006E86
:100B010064026034E56E64036039E56E6404603E3E
:100B1100E56E64056043E56E64066048E56E640752
:100B2100604DC291C290C2A1D2B7020B7BC291C2E9
:100B310090D2A1D2B7020B7BC291D290C2A1D2B7FF
:100B4100020B7BC291D290D2A1D2B7020B7BC29190
:100B5100C290C2A1C2B7020B7BC291C290D2A1C204
:100B6100B7020B7BC291D290C2A1C2B7020B7BC26A
:100B710091D290D2A1C2B7020B7B78C2866EE56E8C
:100B810054F085E06E6400602AE56E64106030E523
:100B91006E64206036E56E6430603CE56E644060F2
:100BA10048E56E64506045E56E6460603CE56E64E6
:100BB100706039C293D292D294756FFF020BF0C26A
:100BC10093C292D294756F00020BF0C293D292C27B
:100BD10094756FFF020BF0C293C292C294756F00BD
:100BE100020BF0020BF0020BF0020BF0020BF0D043
:070BF100E0F8D0D0D0E022B3
:00000001FF
